:020000020000FC
:10000000002704B90FEF0AB905B92BB903B10F7076
:1000100010E001130C940E000C94680011E0011321
:100020000C9414000C946C0012E001130C941A0050
:100030000C94700013E001130C9420000C947400D5
:1000400014E001130C9426000C94780015E00113C1
:100050000C942C000C947C0016E001130C943200DC
:100060000C94800017E001130C9438000C94840069
:1000700018E001130C943E000C94880019E0011361
:100080000C9444000C948C001AE001130C944A0068
:100090000C9490001BE001130C9450000C949400FD
:1000A0001CE001130C9456000C9498001DE0011301
:1000B0000C945C000C949C001EE001130C946200F4
:1000C0000C94A0001FE001130C9405000C94A400F4
:1000D0002FE32BB90C94050026E02BB90C940500F6
:1000E0002BE52BB90C9405002FE42BB90C940500DB
:1000F00026E62BB90C9405002DE62BB90C940500CF
:100100002DE72BB90C94050027E02BB90C940500C2
:100110002FE72BB90C9405002FE62BB90C940500A2
:1001200027E72BB90C9405002CE72BB90C9405009C
:1001300028E52BB90C9405002EE52BB90C9405008D
:1001400029E72BB90C94050021E72BB90C94050085
:00000001FF
