:020000020000FC
:1000000017E810937A001FEF1AB914B9112717B91E
:100010001127AA27103029F400E400937C000C94E7
:100020001F00113029F402E400937C000C941F009F
:1000300004E400937C00123011F00C94080020912D
:100040007A00206420937A0020917A0026FDFCCF6C
:100050003091790020917800103021F0113051F06A
:10006000123081F0A901A3951395A2FF0C940A0008
:100070000C944500B901A3951395A2FF0C940A00B6
:100080000C944500C901A3951395A1E0CC27DD2769
:10009000C41FD51FC61FD71FC81FD91F8827992760
:1000A000FE01F695E795F695E795CF01FE01F695E9
:1000B000E795F695E795F695E795F695E7958E0F12
:1000C0009F1FFE01F695E795F695E795F695E7955E
:1000D000F695E795F695E795F695E7958E0F9F1FB0
:1000E000FE01F695E795F695E795F695E795F69571
:1000F000E795F695E795F695E795F695E7958E0FD2
:100100009F1FEC01CC0FDD1FCC0FDD1FC80FD91FC7
:1001100088279927EE2700E1F6E2CC0FDD1FEE1FBE
:10012000EF1728F0EF1B880F991F816002C0880F1E
:10013000991F0A9591F704E0800F85B99BB968CFA4
:00000001FF
