:020000020000FC
:1000000002E80093800009E100938100219A0FEF3C
:10001000112704B907B91AB90BB985B907B918B9C5
:100020001AB90BB929B1209517B90AB908B91BB982
:1000300036B1309520FD0C94340021FD0C943E0027
:1000400022FD0C94480023FD0C94520024FD0C94D6
:100050005C0025FD0C94660026FD0C94700027FDC5
:100060000C947A000C940D0030FD6CD031FD8AD0D8
:1000700032FDA4D033FDC2D034FDD0D030FD5ED0EF
:1000800031FD7CD032FD96D033FDB4D034FDC6D0E6
:1000900030FD50D031FD6ED032FD88D033FDA6D07A
:1000A00034FDBCD030FD42D031FD60D032FD7AD07D
:1000B00033FD98D034FDB2D030FD34D031FD52D074
:1000C00032FD6CD033FD8AD034FDA8D030FD26D06F
:1000D00031FD44D032FD5ED033FD7CD034FD9AD06A
:1000E00030FD18D031FD36D032FD98D033FD6ED0C2
:1000F00034FD8CD030FD0AD031FD28D032FD46D001
:1001000033FD60D034FD7ED00C940D0087E99DE175
:1001100087D0089586EF97E183D0089587E596E12B
:100120007FD008958CEC94E17BD0089587E893E12B
:1001300077D008958DE392E173D0089587E091E13F
:100140006FD0089589ED9FE06BD0089583E99EE01C
:1001500067D008958BEA9DE063D0089581EB9CE021
:100160005FD0089581EC9BE05BD0089588ED9AE024
:1001700057D0089583E09AE053D0089587E499E03A
:100180004FD0089585E798E04BD0089588ED97E02B
:1001900047D0089585E697E043D0089583EF96E031
:1001A0003FD0089589E896E03BD008958CE296E030
:1001B00037D0089582ED95E033D0089589E895E031
:1001C0002FD008958BE395E02BD008958BEE94E02B
:1001D00027D008958CE994E023D0089583E694E035
:1001E0001FD0089586E294E01BD008958DEB93E034
:1001F00017D0089582EB93E013D008958CE793E035
:100200000FD008958BE493E00BD008958BE193E039
:1002100007D008958EEE92E003D008950CD0089593
:1002200080938600909387009695879580938800A9
:1002300090938900089500E000938000009381006E
:04024000299808955C
:00000001FF
