:020000020000FC
:1000000002E80093800009E100938100219A0FEF3C
:10001000112707B91AB90BB907B918B91AB90BB929
:1000200029B1209517B90AB908B91BB936B130956D
:1000300020FD0C94320021FD0C94410022FD0C9413
:10004000500023FD0C945F0024FD0C946E0025FDF0
:100050000C947D0026FD0C948C0027FD0C949B00D5
:100060000C940C0030FD0C94CA0031FD0C94EA0095
:1000700032FD0C94060133FD0C94260134FD0C94E2
:10008000360130FD0C94C60031FD0C94E60032FDC3
:100090000C94020133FD0C94220134FD0C943601C2
:1000A00030FD0C94C20031FD0C94E20032FD0C9442
:1000B000FE0033FD0C941E0134FD0C94360130FD1E
:1000C0000C94BE0031FD0C94DE0032FD0C94FA005D
:1000D00033FD0C941A0134FD0C94360130FD0C9460
:1000E000B80031FD0C94DA0032FD0C94F60033FDBB
:1000F0000C94160134FD0C94360130FD0C94B400C0
:1001000031FD0C94D60032FD0C94F20033FD0C94BA
:10011000120134FD0C94320130FD0C94B00031FD1D
:100120000C94D20032FD0C94360133FD0C940E0178
:1001300034FD0C942E0130FD0C94AC0031FD0C9478
:10014000CE0032FD0C94EE0033FD0C940A0134FD18
:100150000C942A010C940C008EEB9CEE0C943A014A
:1001600086E39FED0C943A0186E293ED0C943A01FC
:100170008BE097EC0C943A010C940C0080EB9BEB19
:100180000C943A018EE891EB0C943A018AE597EAD7
:100190000C943A018AE39EE90C943A018AE295E9CB
:1001A0000C943A0184EC9CE80C943A018AEF94E8B0
:1001B0000C943A0180E89DE70C943A018FE596E7AC
:1001C0000C943A018FEC9FE60C943A0183E999E68E
:1001D0000C943A0185E893E60C943A018CEF9DE586
:1001E0000C943A018FE29BE30C943A0188EE97E37A
:1001F0000C943A0189EB94E30C943A0182EC91E37C
:100200000C943A0184EF9EE20C943A0183E59CE25F
:100210000C943A0181EE99E20C943A0181E897E25C
:100220000C943A0184E495E20C943A0181E393E260
:100230000C943A018DE391E20C943A0186E59FE13A
:100240000C943A0187E99DE10C943A0181EF9BE11E
:100250000C943A018FE59AE10C943A0183EE98E10F
:100260000C943A018EE797E10C943A01882799277C
:100270000C943A0180938600909387009695879519
:0C02800080938800909389000C940C007F
:00000001FF
