:020000020000FC
:100000000FEF0AB904B940E75FE057B948B957B9EB
:1000100048B906B1009547B958B916B1109504FD15
:100020000C941A0005FD0C941D0006FD0C94200094
:100030000C94070021E00C94230022E00C94230090
:1000400024E00C94230010FD0C94330011FD0C945B
:10005000360012FD0C94390013FD0C943C0012E3A1
:1000600015B90C94070031E00C943F0032E00C9479
:100070003F0034E00C943F0038E00C943F00220F26
:0E008000220F220F220F232B2BB90C94070006
:00000001FF
