:020000020000FC
:100000000FEF0AB904B900EF08B940E75FE057B94C
:1000100048B957B948B906B1009547B958B916B1AA
:10002000109504FD0C941C0005FD0C941F0006FDAA
:100030000C9422000C94090021E00C94250022E08D
:100040000C94250024E00C94250010FD0C94330042
:1000500011FD0C94360012FD0C94390013FD0C9424
:100060003C000C94090031E00C943F0032E00C9409
:100070003F0034E00C943F0038E00C943F00220F26
:10008000220F220F220F232B2431C1F02432C9F07A
:100090002434D1F02231D9F02232E1F02234E9F0D7
:1000A0002131F1F02132F9F0213401F1283209F146
:1000B000283111F1283419F10C94090061E00C94F5
:1000C000820062E00C94820063E00C94820064E0A1
:1000D0000C94820065E00C94820066E00C9482002F
:1000E00067E00C94820068E00C94820069E00C9454
:1000F000820060E00C94820060E00C949F0060E05D
:100100000C94A300660F660F77276A3020F06A50C0
:1001100073950C9485007130E9F07230F1F0733012
:10012000F9F0743001F1753009F1763011F1773062
:1001300019F1783021F1793029F1703041F090E8EF
:1001400080E00C94F70080E890E00C94F7009FE3C7
:100150000C94C50096E00C94C5009BE50C94C5007A
:100160009FE40C94C50096E60C94C5009DE60C94A3
:10017000C5009DE70C94C50097E00C94C5009FE76F
:100180000C94C5009FE60C94C5006130A9F0623064
:10019000B1F06330B9F06430C1F06530C9F0663059
:1001A000D1F06730D9F06830E1F06930E9F06030C3
:1001B00001F08FE30C94F70086E00C94F7008BE5D8
:1001C0000C94F7008FE40C94F70086E60C94F7008B
:1001D0008DE60C94F7008DE70C94F70087E00C9403
:1001E000F7008FE70C94F7008FE60C94F7009BB9AB
:0601F00085B90C94090022
:00000001FF
