:020000020000FC
:1000000017E810937A001FEF1AB914B9112717B91E
:100010001127AA27103029F400E400937C000C94E7
:100020001F00113029F402E400937C000C941F009F
:1000300004E400937C00123011F00C94080020912D
:100040007A00206420937A0020917A0026FDFCCF6C
:100050003091790020917800103021F0113051F06A
:10006000123081F0A901A3951395A2FF0C940A0008
:100070000C944500B901A3951395A2FF0C940A00B6
:100080000C944500C901A3951395A1E0CC27DD2769
:10009000C41FD51FC61FD71FC81FD91FDBB9C5B9BD
:1000A000B7CF63E088279927D6171CF0D61B939506
:1000B000FBCFC6171CF0C61B8395FBCF95B98BB938
:0200C000A7CFC8
:00000001FF
